{
  "_format": "hh-sol-artifact-1",
  "contractName": "CardMarketplace",
  "sourceName": "contracts/cardMarketplace.sol",
  "abi": [
    {
      "inputs": [
        {
          "internalType": "address",
          "name": "cardNFTAddress",
          "type": "address"
        }
      ],
      "stateMutability": "nonpayable",
      "type": "constructor"
    },
    {
      "inputs": [],
      "name": "CannotTradeWithSelf",
      "type": "error"
    },
    {
      "inputs": [
        {
          "internalType": "uint256",
          "name": "tokenId",
          "type": "uint256"
        },
        {
          "internalType": "uint256",
          "name": "remainingTime",
          "type": "uint256"
        }
      ],
      "name": "CardIsLocked",
      "type": "error"
    },
    {
      "inputs": [
        {
          "internalType": "address",
          "name": "user",
          "type": "address"
        },
        {
          "internalType": "uint256",
          "name": "remainingTime",
          "type": "uint256"
        }
      ],
      "name": "CooldownActive",
      "type": "error"
    },
    {
      "inputs": [],
      "name": "InvalidCardNFTAddress",
      "type": "error"
    },
    {
      "inputs": [
        {
          "internalType": "uint256",
          "name": "proposerValue",
          "type": "uint256"
        },
        {
          "internalType": "uint256",
          "name": "receiverValue",
          "type": "uint256"
        },
        {
          "internalType": "uint256",
          "name": "ratio",
          "type": "uint256"
        }
      ],
      "name": "InvalidExchangeRatio",
      "type": "error"
    },
    {
      "inputs": [
        {
          "internalType": "address",
          "name": "user",
          "type": "address"
        }
      ],
      "name": "MaxCardsReached",
      "type": "error"
    },
    {
      "inputs": [
        {
          "internalType": "address",
          "name": "caller",
          "type": "address"
        },
        {
          "internalType": "uint256",
          "name": "tokenId",
          "type": "uint256"
        }
      ],
      "name": "NotTokenOwner",
      "type": "error"
    },
    {
      "inputs": [
        {
          "internalType": "address",
          "name": "caller",
          "type": "address"
        },
        {
          "internalType": "uint256",
          "name": "tradeId",
          "type": "uint256"
        }
      ],
      "name": "NotTradeParticipant",
      "type": "error"
    },
    {
      "inputs": [
        {
          "internalType": "address",
          "name": "caller",
          "type": "address"
        },
        {
          "internalType": "uint256",
          "name": "tradeId",
          "type": "uint256"
        }
      ],
      "name": "NotTradeProposer",
      "type": "error"
    },
    {
      "inputs": [
        {
          "internalType": "address",
          "name": "caller",
          "type": "address"
        },
        {
          "internalType": "uint256",
          "name": "tradeId",
          "type": "uint256"
        }
      ],
      "name": "NotTradeReceiver",
      "type": "error"
    },
    {
      "inputs": [
        {
          "internalType": "address",
          "name": "owner",
          "type": "address"
        }
      ],
      "name": "OwnableInvalidOwner",
      "type": "error"
    },
    {
      "inputs": [
        {
          "internalType": "address",
          "name": "account",
          "type": "address"
        }
      ],
      "name": "OwnableUnauthorizedAccount",
      "type": "error"
    },
    {
      "inputs": [],
      "name": "ReentrancyGuardReentrantCall",
      "type": "error"
    },
    {
      "inputs": [
        {
          "internalType": "uint256",
          "name": "tokenId",
          "type": "uint256"
        },
        {
          "internalType": "uint256",
          "name": "existingTradeId",
          "type": "uint256"
        }
      ],
      "name": "TokenAlreadyInTrade",
      "type": "error"
    },
    {
      "inputs": [
        {
          "internalType": "uint256",
          "name": "tradeId",
          "type": "uint256"
        }
      ],
      "name": "TradeDoesNotExist",
      "type": "error"
    },
    {
      "inputs": [
        {
          "internalType": "uint256",
          "name": "tradeId",
          "type": "uint256"
        }
      ],
      "name": "TradeExpiredError",
      "type": "error"
    },
    {
      "inputs": [
        {
          "internalType": "uint256",
          "name": "tradeId",
          "type": "uint256"
        }
      ],
      "name": "TradeNotPending",
      "type": "error"
    },
    {
      "anonymous": false,
      "inputs": [
        {
          "indexed": true,
          "internalType": "address",
          "name": "previousOwner",
          "type": "address"
        },
        {
          "indexed": true,
          "internalType": "address",
          "name": "newOwner",
          "type": "address"
        }
      ],
      "name": "OwnershipTransferred",
      "type": "event"
    },
    {
      "anonymous": false,
      "inputs": [
        {
          "indexed": true,
          "internalType": "uint256",
          "name": "tradeId",
          "type": "uint256"
        },
        {
          "indexed": true,
          "internalType": "address",
          "name": "proposer",
          "type": "address"
        },
        {
          "indexed": true,
          "internalType": "address",
          "name": "receiver",
          "type": "address"
        },
        {
          "indexed": false,
          "internalType": "uint256",
          "name": "proposerTokenId",
          "type": "uint256"
        },
        {
          "indexed": false,
          "internalType": "uint256",
          "name": "receiverTokenId",
          "type": "uint256"
        }
      ],
      "name": "TradeAccepted",
      "type": "event"
    },
    {
      "anonymous": false,
      "inputs": [
        {
          "indexed": true,
          "internalType": "uint256",
          "name": "tradeId",
          "type": "uint256"
        },
        {
          "indexed": true,
          "internalType": "address",
          "name": "cancelledBy",
          "type": "address"
        }
      ],
      "name": "TradeCancelled",
      "type": "event"
    },
    {
      "anonymous": false,
      "inputs": [
        {
          "indexed": true,
          "internalType": "uint256",
          "name": "tradeId",
          "type": "uint256"
        }
      ],
      "name": "TradeExpired",
      "type": "event"
    },
    {
      "anonymous": false,
      "inputs": [
        {
          "indexed": true,
          "internalType": "uint256",
          "name": "tradeId",
          "type": "uint256"
        },
        {
          "indexed": true,
          "internalType": "address",
          "name": "proposer",
          "type": "address"
        },
        {
          "indexed": true,
          "internalType": "address",
          "name": "receiver",
          "type": "address"
        },
        {
          "indexed": false,
          "internalType": "uint256",
          "name": "proposerTokenId",
          "type": "uint256"
        },
        {
          "indexed": false,
          "internalType": "uint256",
          "name": "receiverTokenId",
          "type": "uint256"
        },
        {
          "indexed": false,
          "internalType": "uint256",
          "name": "expiresAt",
          "type": "uint256"
        }
      ],
      "name": "TradeProposed",
      "type": "event"
    },
    {
      "inputs": [],
      "name": "MAX_EXCHANGE_RATIO",
      "outputs": [
        {
          "internalType": "uint256",
          "name": "",
          "type": "uint256"
        }
      ],
      "stateMutability": "view",
      "type": "function"
    },
    {
      "inputs": [],
      "name": "TRADE_EXPIRATION",
      "outputs": [
        {
          "internalType": "uint256",
          "name": "",
          "type": "uint256"
        }
      ],
      "stateMutability": "view",
      "type": "function"
    },
    {
      "inputs": [
        {
          "internalType": "uint256",
          "name": "tradeId",
          "type": "uint256"
        }
      ],
      "name": "acceptTrade",
      "outputs": [],
      "stateMutability": "nonpayable",
      "type": "function"
    },
    {
      "inputs": [
        {
          "internalType": "uint256",
          "name": "tradeId",
          "type": "uint256"
        }
      ],
      "name": "canAcceptTrade",
      "outputs": [
        {
          "internalType": "bool",
          "name": "",
          "type": "bool"
        },
        {
          "internalType": "string",
          "name": "",
          "type": "string"
        }
      ],
      "stateMutability": "view",
      "type": "function"
    },
    {
      "inputs": [
        {
          "internalType": "uint256",
          "name": "tradeId",
          "type": "uint256"
        }
      ],
      "name": "cancelTrade",
      "outputs": [],
      "stateMutability": "nonpayable",
      "type": "function"
    },
    {
      "inputs": [],
      "name": "cardNFT",
      "outputs": [
        {
          "internalType": "contract CardNFT",
          "name": "",
          "type": "address"
        }
      ],
      "stateMutability": "view",
      "type": "function"
    },
    {
      "inputs": [
        {
          "internalType": "uint256",
          "name": "tokenId1",
          "type": "uint256"
        },
        {
          "internalType": "uint256",
          "name": "tokenId2",
          "type": "uint256"
        }
      ],
      "name": "checkExchangeRatio",
      "outputs": [
        {
          "internalType": "bool",
          "name": "isValid",
          "type": "bool"
        },
        {
          "internalType": "uint256",
          "name": "ratio",
          "type": "uint256"
        }
      ],
      "stateMutability": "view",
      "type": "function"
    },
    {
      "inputs": [
        {
          "internalType": "uint256",
          "name": "tradeId",
          "type": "uint256"
        }
      ],
      "name": "expireTrade",
      "outputs": [],
      "stateMutability": "nonpayable",
      "type": "function"
    },
    {
      "inputs": [
        {
          "internalType": "uint256",
          "name": "tokenId",
          "type": "uint256"
        }
      ],
      "name": "getTokenActiveTrade",
      "outputs": [
        {
          "internalType": "uint256",
          "name": "",
          "type": "uint256"
        }
      ],
      "stateMutability": "view",
      "type": "function"
    },
    {
      "inputs": [
        {
          "internalType": "uint256",
          "name": "tradeId",
          "type": "uint256"
        }
      ],
      "name": "getTrade",
      "outputs": [
        {
          "internalType": "address",
          "name": "proposer",
          "type": "address"
        },
        {
          "internalType": "address",
          "name": "receiver",
          "type": "address"
        },
        {
          "internalType": "uint256",
          "name": "proposerTokenId",
          "type": "uint256"
        },
        {
          "internalType": "uint256",
          "name": "receiverTokenId",
          "type": "uint256"
        },
        {
          "internalType": "uint256",
          "name": "createdAt",
          "type": "uint256"
        },
        {
          "internalType": "uint256",
          "name": "expiresAt",
          "type": "uint256"
        },
        {
          "internalType": "enum CardMarketplace.TradeStatus",
          "name": "status",
          "type": "uint8"
        }
      ],
      "stateMutability": "view",
      "type": "function"
    },
    {
      "inputs": [
        {
          "internalType": "address",
          "name": "user",
          "type": "address"
        }
      ],
      "name": "getUserTrades",
      "outputs": [
        {
          "internalType": "uint256[]",
          "name": "",
          "type": "uint256[]"
        }
      ],
      "stateMutability": "view",
      "type": "function"
    },
    {
      "inputs": [
        {
          "internalType": "uint256",
          "name": "tradeId",
          "type": "uint256"
        }
      ],
      "name": "isTradeValid",
      "outputs": [
        {
          "internalType": "bool",
          "name": "",
          "type": "bool"
        }
      ],
      "stateMutability": "view",
      "type": "function"
    },
    {
      "inputs": [],
      "name": "owner",
      "outputs": [
        {
          "internalType": "address",
          "name": "",
          "type": "address"
        }
      ],
      "stateMutability": "view",
      "type": "function"
    },
    {
      "inputs": [
        {
          "internalType": "uint256",
          "name": "proposerTokenId",
          "type": "uint256"
        },
        {
          "internalType": "address",
          "name": "receiver",
          "type": "address"
        },
        {
          "internalType": "uint256",
          "name": "receiverTokenId",
          "type": "uint256"
        }
      ],
      "name": "proposeTrade",
      "outputs": [
        {
          "internalType": "uint256",
          "name": "",
          "type": "uint256"
        }
      ],
      "stateMutability": "nonpayable",
      "type": "function"
    },
    {
      "inputs": [],
      "name": "renounceOwnership",
      "outputs": [],
      "stateMutability": "nonpayable",
      "type": "function"
    },
    {
      "inputs": [
        {
          "internalType": "address",
          "name": "newOwner",
          "type": "address"
        }
      ],
      "name": "transferOwnership",
      "outputs": [],
      "stateMutability": "nonpayable",
      "type": "function"
    }
  ],
  "bytecode": "0x60806040523480156200001157600080fd5b506040516200204e3803806200204e83398101604081905262000034916200010e565b33806200005b57604051631e4fbdf760e01b81526000600482015260240160405180910390fd5b6200006681620000be565b50600180556001600160a01b0381166200009357604051635a9bcd0f60e11b815260040160405180910390fd5b600280546001600160a01b0319166001600160a01b0392909216919091179055600060035562000140565b600080546001600160a01b038381166001600160a01b0319831681178455604051919092169283917f8be0079c531659141344cd1fd0a4f28419497f9722a3daafe3b4186f6b6457e09190a35050565b6000602082840312156200012157600080fd5b81516001600160a01b03811681146200013957600080fd5b9392505050565b611efe80620001506000396000f3fe608060405234801561001057600080fd5b50600436106101005760003560e01c80638da5cb5b116100975780639b8d6136116100665780639b8d613614610244578063cb82109c14610257578063ecb9fec314610281578063f2fde38b1461029457600080fd5b80638da5cb5b146101cf57806390f12f5e146101e0578063927c77421461020157806392be41cf1461022157600080fd5b80635eeca5a9116100d35780635eeca5a91461018a5780635f778e841461019d578063715018a6146101a75780637b5b3178146101af57600080fd5b806309ec6cc7146101055780632db25e051461011a57806338d5d7d1146101495780635e3bad3f14610174575b600080fd5b610118610113366004611c4b565b6102a7565b005b61012d610128366004611c4b565b6103de565b6040516101409796959493929190611c7a565b60405180910390f35b60025461015c906001600160a01b031681565b6040516001600160a01b039091168152602001610140565b61017c600581565b604051908152602001610140565b610118610198366004611c4b565b610467565b61017c6201518081565b610118610543565b61017c6101bd366004611c4b565b60009081526006602052604090205490565b6000546001600160a01b031661015c565b6101f36101ee366004611c4b565b610557565b604051610140929190611cde565b61021461020f366004611d4b565b610afa565b6040516101409190611d68565b61023461022f366004611c4b565b610b66565b6040519015158152602001610140565b61017c610252366004611dac565b610cef565b61026a610265366004611de4565b61127f565b604080519215158352602083019190915201610140565b61011861028f366004611c4b565b61139b565b6101186102a2366004611d4b565b611b69565b6102af611ba4565b600081815260046020526040812080549091036102e65760405162e95f7760e61b8152600481018390526024015b60405180910390fd5b6000600782015460ff16600381111561030157610301611c64565b1461032257604051635ba8ca8360e01b8152600481018390526024016102dd565b60018101546001600160a01b0316331480159061034c575060028101546001600160a01b03163314155b156103735760405163140ffdb360e01b8152336004820152602481018390526044016102dd565b60078101805460ff1916600217905560038101546004820154600091825260066020526040808320839055908252812055604051339083907f68bbfaa8a985659b13e3f23ffac8fc9039d6ca60199cd9327817cb0cc03eb87690600090a3506103db60018055565b50565b60008181526004602052604081208054829182918291829182918291820361041b5760405162e95f7760e61b8152600481018a90526024016102dd565b6001810154600282015460038301546004840154600585015460068601546007909601546001600160a01b039586169f959094169d50919b509950975091955060ff9091169350915050565b600081815260046020526040812080549091036104995760405162e95f7760e61b8152600481018390526024016102dd565b6000600782015460ff1660038111156104b4576104b4611c64565b146104d557604051635ba8ca8360e01b8152600481018390526024016102dd565b806006015442111561053f5760078101805460ff19166003908117909155810154600482015460009182526006602052604080832083905590825281205560405182907fcfbcbfeee9ccb107958511dda6b71f9144382df7a0799b7a0aad567f2b6fbce390600090a25b5050565b61054b611bce565b6105556000611bfb565b565b600081815260046020526040812080546060919083036105aa57600060405180604001604052806014815260200173151c98591948191bd95cc81b9bdd08195e1a5cdd60621b8152509250925050915091565b6000600782015460ff1660038111156105c5576105c5611c64565b14610603576000604051806040016040528060148152602001735472616465206973206e6f742070656e64696e6760601b8152509250925050915091565b806006015442111561064557600060405180604001604052806011815260200170151c985919481a185cc8195e1c1a5c9959607a1b8152509250925050915091565b600181015460025460038301546040516331a9108f60e11b815260048101919091526001600160a01b039283169290911690636352211e90602401602060405180830381865afa15801561069d573d6000803e3d6000fd5b505050506040513d601f19601f820116820180604052508101906106c19190611e06565b6001600160a01b0316146107115760006040518060400160405280602081526020017f50726f706f736572206e6f206c6f6e676572206f776e732074686520636172648152509250925050915091565b60028181015490546004808401546040516331a9108f60e11b8152918201526001600160a01b039283169290911690636352211e90602401602060405180830381865afa158015610766573d6000803e3d6000fd5b505050506040513d601f19601f8201168201806040525081019061078a9190611e06565b6001600160a01b0316146107da5760006040518060400160405280602081526020017f5265636569766572206e6f206c6f6e676572206f776e732074686520636172648152509250925050915091565b6002546003820154604051630b34750f60e11b81526001600160a01b0390921691631668ea1e916108119160040190815260200190565b602060405180830381865afa15801561082e573d6000803e3d6000fd5b505050506040513d601f19601f820116820180604052508101906108529190611e23565b156108995760006040518060400160405280601781526020017f50726f706f7365722063617264206973206c6f636b65640000000000000000008152509250925050915091565b600254600482810154604051630b34750f60e11b8152918201526001600160a01b0390911690631668ea1e90602401602060405180830381865afa1580156108e5573d6000803e3d6000fd5b505050506040513d601f19601f820116820180604052508101906109099190611e23565b156109505760006040518060400160405280601781526020017f52656365697665722063617264206973206c6f636b65640000000000000000008152509250925050915091565b600254600182015460405163aa7c080b60e01b81526001600160a01b03918216600482015291169063aa7c080b90602401602060405180830381865afa15801561099e573d6000803e3d6000fd5b505050506040513d601f19601f820116820180604052508101906109c29190611e23565b610a085760006040518060400160405280601881526020017f50726f706f73657220636f6f6c646f776e2061637469766500000000000000008152509250925050915091565b600280549082015460405163aa7c080b60e01b81526001600160a01b03918216600482015291169063aa7c080b90602401602060405180830381865afa158015610a56573d6000803e3d6000fd5b505050506040513d601f19601f82011682018060405250810190610a7a9190611e23565b610ac05760006040518060400160405280601881526020017f526563656976657220636f6f6c646f776e2061637469766500000000000000008152509250925050915091565b600160405180604001604052806015815260200174151c9859194818d85b881899481858d8d95c1d1959605a1b8152509250925050915091565b6001600160a01b038116600090815260056020908152604091829020805483518184028101840190945280845260609392830182828015610b5a57602002820191906000526020600020905b815481526020019060010190808311610b46575b50505050509050919050565b600081815260046020526040812080548203610b855750600092915050565b6000600782015460ff166003811115610ba057610ba0611c64565b14610bae5750600092915050565b8060060154421115610bc35750600092915050565b600181015460025460038301546040516331a9108f60e11b815260048101919091526001600160a01b039283169290911690636352211e90602401602060405180830381865afa158015610c1b573d6000803e3d6000fd5b505050506040513d601f19601f82011682018060405250810190610c3f9190611e06565b6001600160a01b031614610c565750600092915050565b60028181015490546004808401546040516331a9108f60e11b8152918201526001600160a01b039283169290911690636352211e90602401602060405180830381865afa158015610cab573d6000803e3d6000fd5b505050506040513d601f19601f82011682018060405250810190610ccf9190611e06565b6001600160a01b031614610ce65750600092915050565b50600192915050565b6000610cf9611ba4565b336001600160a01b0384168103610d2357604051634e5ee53960e11b815260040160405180910390fd5b6002546040516331a9108f60e11b8152600481018790526001600160a01b03838116921690636352211e90602401602060405180830381865afa158015610d6e573d6000803e3d6000fd5b505050506040513d601f19601f82011682018060405250810190610d929190611e06565b6001600160a01b031614610dcb57604051632c52f11160e11b81526001600160a01b0382166004820152602481018690526044016102dd565b6002546040516331a9108f60e11b8152600481018590526001600160a01b03868116921690636352211e90602401602060405180830381865afa158015610e16573d6000803e3d6000fd5b505050506040513d601f19601f82011682018060405250810190610e3a9190611e06565b6001600160a01b031614610e7357604051632c52f11160e11b81526001600160a01b0385166004820152602481018490526044016102dd565b60008581526006602052604090205415610ee7576000858152600660205260408120549060008281526004602052604090206007015460ff166003811115610ebd57610ebd611c64565b03610ee557604051630b710caf60e31b815260048101879052602481018290526044016102dd565b505b60008381526006602052604090205415610f5b576000838152600660205260408120549060008281526004602052604090206007015460ff166003811115610f3157610f31611c64565b03610f5957604051630b710caf60e31b815260048101859052602481018290526044016102dd565b505b600254604051632e78f9a760e01b8152600481018790526000916001600160a01b031690632e78f9a790602401602060405180830381865afa158015610fa5573d6000803e3d6000fd5b505050506040513d601f19601f82011682018060405250810190610fc99190611e45565b600254604051632e78f9a760e01b8152600481018790529192506000916001600160a01b0390911690632e78f9a790602401602060405180830381865afa158015611018573d6000803e3d6000fd5b505050506040513d601f19601f8201168201806040525081019061103c9190611e45565b90506000818310611058576110518284611e74565b9050611065565b6110628383611e74565b90505b6005811115611098576040516360a2e2b360e01b81526004810184905260248101839052604481018290526064016102dd565b600380549060006110a883611e96565b9190505550600060035490506000604051806101000160405280838152602001876001600160a01b031681526020018a6001600160a01b031681526020018b815260200189815260200142815260200162015180426111079190611eaf565b8152602001600090526000838152600460208181526040928390208451815590840151600180830180546001600160a01b039384166001600160a01b03199182161790915594860151600284018054919093169516949094179055606084015160038083019190915560808501519282019290925560a0840151600582015560c0840151600682015560e0840151600782018054959650869592949193909260ff1916919084908111156111bd576111bd611c64565b021790555050506001600160a01b03868116600081815260056020908152604080832080546001808201835591855283852001889055948e168084528184208054968701815584528284209095018790558e8352600682528083208790558c83529182902086905560c085015182518f81529182018d905281830152905185917f0ed07d42c3402a13b22dd06398d8beb62993b655353bb63ef403b90801d01925919081900360600190a45094505050505061127860018055565b9392505050565b600254604051632e78f9a760e01b815260048101849052600091829182916001600160a01b031690632e78f9a790602401602060405180830381865afa1580156112cd573d6000803e3d6000fd5b505050506040513d601f19601f820116820180604052508101906112f19190611e45565b600254604051632e78f9a760e01b8152600481018790529192506000916001600160a01b0390911690632e78f9a790602401602060405180830381865afa158015611340573d6000803e3d6000fd5b505050506040513d601f19601f820116820180604052508101906113649190611e45565b905080821061137e576113778183611e74565b925061138b565b6113888282611e74565b92505b6005831115935050509250929050565b6113a3611ba4565b600081815260046020526040812080549091036113d55760405162e95f7760e61b8152600481018390526024016102dd565b6000600782015460ff1660038111156113f0576113f0611c64565b1461141157604051635ba8ca8360e01b8152600481018390526024016102dd565b80600601544211156114965760078101805460ff19166003908117909155810154600482015460009182526006602052604080832083905590825281205560405182907fcfbcbfeee9ccb107958511dda6b71f9144382df7a0799b7a0aad567f2b6fbce390600090a2604051633c2bd38b60e21b8152600481018390526024016102dd565b60028101546001600160a01b031633146114cc5760405163819abba360e01b8152336004820152602481018390526044016102dd565b600181015460025460038301546040516331a9108f60e11b815260048101919091526001600160a01b039283169290911690636352211e90602401602060405180830381865afa158015611524573d6000803e3d6000fd5b505050506040513d601f19601f820116820180604052508101906115489190611e06565b6001600160a01b03161461158a5760018101546003820154604051632c52f11160e11b81526001600160a01b03909216600483015260248201526044016102dd565b60028181015490546004808401546040516331a9108f60e11b8152918201526001600160a01b039283169290911690636352211e90602401602060405180830381865afa1580156115df573d6000803e3d6000fd5b505050506040513d601f19601f820116820180604052508101906116039190611e06565b6001600160a01b031614611648576002810154600480830154604051632c52f11160e11b81526001600160a01b039093169183019190915260248201526044016102dd565b6002546003820154604051630b34750f60e11b81526001600160a01b0390921691631668ea1e9161167f9160040190815260200190565b602060405180830381865afa15801561169c573d6000803e3d6000fd5b505050506040513d601f19601f820116820180604052508101906116c09190611e23565b1561175a5760038101546002546040516321806bf960e01b8152600481018390526001600160a01b03909116906321806bf9906024015b602060405180830381865afa158015611714573d6000803e3d6000fd5b505050506040513d601f19601f820116820180604052508101906117389190611e45565b60405163f22bf17360e01b8152600481019290925260248201526044016102dd565b600254600482810154604051630b34750f60e11b8152918201526001600160a01b0390911690631668ea1e90602401602060405180830381865afa1580156117a6573d6000803e3d6000fd5b505050506040513d601f19601f820116820180604052508101906117ca9190611e23565b15611807576004818101546002546040516321806bf960e01b815292830182905290916001600160a01b03909116906321806bf9906024016116f7565b600254600182015460405163aa7c080b60e01b81526001600160a01b03918216600482015291169063aa7c080b90602401602060405180830381865afa158015611855573d6000803e3d6000fd5b505050506040513d601f19601f820116820180604052508101906118799190611e23565b61191e5760018101546002546040516339bcf80160e21b81526001600160a01b0392831660048201819052929091169063e6f3e004906024015b602060405180830381865afa1580156118d0573d6000803e3d6000fd5b505050506040513d601f19601f820116820180604052508101906118f49190611e45565b6040516361083b7f60e01b81526001600160a01b03909216600483015260248201526044016102dd565b600280549082015460405163aa7c080b60e01b81526001600160a01b03918216600482015291169063aa7c080b90602401602060405180830381865afa15801561196c573d6000803e3d6000fd5b505050506040513d601f19601f820116820180604052508101906119909190611e23565b6119ce5760028181015490546040516339bcf80160e21b81526001600160a01b0392831660048201819052929091169063e6f3e004906024016118b3565b60078101805460ff1916600117905560038101546004820154600091825260066020526040808320839055908252812055600280546001830154918301546003840154604051637f9f316160e01b81526001600160a01b03948516600482015291841660248301526044820152911690637f9f316190606401600060405180830381600087803b158015611a6157600080fd5b505af1158015611a75573d6000803e3d6000fd5b505060028054908401546001850154600480870154604051637f9f316160e01b81526001600160a01b03948516928101929092529183166024820152604481019190915291169250637f9f31619150606401600060405180830381600087803b158015611ae157600080fd5b505af1158015611af5573d6000803e3d6000fd5b50505060028201546001830154600384015460048501546040516001600160a01b039485169550929093169286927ffe10311c4147da4a6b50760f8739ccb417e06138ac3c7e9d741f1216b5f7d4e692611b5792908252602082015260400190565b60405180910390a4506103db60018055565b611b71611bce565b6001600160a01b038116611b9b57604051631e4fbdf760e01b8152600060048201526024016102dd565b6103db81611bfb565b600260015403611bc757604051633ee5aeb560e01b815260040160405180910390fd5b6002600155565b6000546001600160a01b031633146105555760405163118cdaa760e01b81523360048201526024016102dd565b600080546001600160a01b038381166001600160a01b0319831681178455604051919092169283917f8be0079c531659141344cd1fd0a4f28419497f9722a3daafe3b4186f6b6457e09190a35050565b600060208284031215611c5d57600080fd5b5035919050565b634e487b7160e01b600052602160045260246000fd5b6001600160a01b0388811682528716602082015260408101869052606081018590526080810184905260a0810183905260e0810160048310611ccc57634e487b7160e01b600052602160045260246000fd5b8260c083015298975050505050505050565b821515815260006020604081840152835180604085015260005b81811015611d1457858101830151858201606001528201611cf8565b506000606082860101526060601f19601f830116850101925050509392505050565b6001600160a01b03811681146103db57600080fd5b600060208284031215611d5d57600080fd5b813561127881611d36565b6020808252825182820181905260009190848201906040850190845b81811015611da057835183529284019291840191600101611d84565b50909695505050505050565b600080600060608486031215611dc157600080fd5b833592506020840135611dd381611d36565b929592945050506040919091013590565b60008060408385031215611df757600080fd5b50508035926020909101359150565b600060208284031215611e1857600080fd5b815161127881611d36565b600060208284031215611e3557600080fd5b8151801515811461127857600080fd5b600060208284031215611e5757600080fd5b5051919050565b634e487b7160e01b600052601160045260246000fd5b600082611e9157634e487b7160e01b600052601260045260246000fd5b500490565b600060018201611ea857611ea8611e5e565b5060010190565b80820180821115611ec257611ec2611e5e565b9291505056fea2646970667358221220daf9c49e42d072ee5c57647dbb2c57652306b5d5670121deaadd2c354082a12964736f6c63430008140033",
  "linkReferences": {},
  "deployedLinkReferences": {}
}