{
  "_format": "hh-sol-artifact-1",
  "contractName": "CardNFT",
  "sourceName": "contracts/cardNFT.sol",
  "abi": [
    {
      "inputs": [],
      "stateMutability": "nonpayable",
      "type": "constructor"
    },
    {
      "inputs": [
        {
          "internalType": "uint256",
          "name": "tokenId",
          "type": "uint256"
        }
      ],
      "name": "CardDoesNotExist",
      "type": "error"
    },
    {
      "inputs": [
        {
          "internalType": "uint256",
          "name": "tokenId",
          "type": "uint256"
        },
        {
          "internalType": "uint256",
          "name": "remainingTime",
          "type": "uint256"
        }
      ],
      "name": "CardLocked",
      "type": "error"
    },
    {
      "inputs": [
        {
          "internalType": "address",
          "name": "user",
          "type": "address"
        },
        {
          "internalType": "uint256",
          "name": "remainingTime",
          "type": "uint256"
        }
      ],
      "name": "CooldownNotElapsed",
      "type": "error"
    },
    {
      "inputs": [
        {
          "internalType": "address",
          "name": "sender",
          "type": "address"
        },
        {
          "internalType": "uint256",
          "name": "tokenId",
          "type": "uint256"
        },
        {
          "internalType": "address",
          "name": "owner",
          "type": "address"
        }
      ],
      "name": "ERC721IncorrectOwner",
      "type": "error"
    },
    {
      "inputs": [
        {
          "internalType": "address",
          "name": "operator",
          "type": "address"
        },
        {
          "internalType": "uint256",
          "name": "tokenId",
          "type": "uint256"
        }
      ],
      "name": "ERC721InsufficientApproval",
      "type": "error"
    },
    {
      "inputs": [
        {
          "internalType": "address",
          "name": "approver",
          "type": "address"
        }
      ],
      "name": "ERC721InvalidApprover",
      "type": "error"
    },
    {
      "inputs": [
        {
          "internalType": "address",
          "name": "operator",
          "type": "address"
        }
      ],
      "name": "ERC721InvalidOperator",
      "type": "error"
    },
    {
      "inputs": [
        {
          "internalType": "address",
          "name": "owner",
          "type": "address"
        }
      ],
      "name": "ERC721InvalidOwner",
      "type": "error"
    },
    {
      "inputs": [
        {
          "internalType": "address",
          "name": "receiver",
          "type": "address"
        }
      ],
      "name": "ERC721InvalidReceiver",
      "type": "error"
    },
    {
      "inputs": [
        {
          "internalType": "address",
          "name": "sender",
          "type": "address"
        }
      ],
      "name": "ERC721InvalidSender",
      "type": "error"
    },
    {
      "inputs": [
        {
          "internalType": "uint256",
          "name": "tokenId",
          "type": "uint256"
        }
      ],
      "name": "ERC721NonexistentToken",
      "type": "error"
    },
    {
      "inputs": [],
      "name": "InvalidCardData",
      "type": "error"
    },
    {
      "inputs": [],
      "name": "InvalidEdition",
      "type": "error"
    },
    {
      "inputs": [],
      "name": "InvalidPowerOrDefense",
      "type": "error"
    },
    {
      "inputs": [
        {
          "internalType": "address",
          "name": "user",
          "type": "address"
        },
        {
          "internalType": "uint256",
          "name": "currentCount",
          "type": "uint256"
        }
      ],
      "name": "MaxCardsReached",
      "type": "error"
    },
    {
      "inputs": [
        {
          "internalType": "address",
          "name": "owner",
          "type": "address"
        }
      ],
      "name": "OwnableInvalidOwner",
      "type": "error"
    },
    {
      "inputs": [
        {
          "internalType": "address",
          "name": "account",
          "type": "address"
        }
      ],
      "name": "OwnableUnauthorizedAccount",
      "type": "error"
    },
    {
      "inputs": [],
      "name": "ReentrancyGuardReentrantCall",
      "type": "error"
    },
    {
      "anonymous": false,
      "inputs": [
        {
          "indexed": true,
          "internalType": "address",
          "name": "owner",
          "type": "address"
        },
        {
          "indexed": true,
          "internalType": "address",
          "name": "approved",
          "type": "address"
        },
        {
          "indexed": true,
          "internalType": "uint256",
          "name": "tokenId",
          "type": "uint256"
        }
      ],
      "name": "Approval",
      "type": "event"
    },
    {
      "anonymous": false,
      "inputs": [
        {
          "indexed": true,
          "internalType": "address",
          "name": "owner",
          "type": "address"
        },
        {
          "indexed": true,
          "internalType": "address",
          "name": "operator",
          "type": "address"
        },
        {
          "indexed": false,
          "internalType": "bool",
          "name": "approved",
          "type": "bool"
        }
      ],
      "name": "ApprovalForAll",
      "type": "event"
    },
    {
      "anonymous": false,
      "inputs": [
        {
          "indexed": false,
          "internalType": "uint256",
          "name": "_fromTokenId",
          "type": "uint256"
        },
        {
          "indexed": false,
          "internalType": "uint256",
          "name": "_toTokenId",
          "type": "uint256"
        }
      ],
      "name": "BatchMetadataUpdate",
      "type": "event"
    },
    {
      "anonymous": false,
      "inputs": [
        {
          "indexed": true,
          "internalType": "uint256",
          "name": "tokenId",
          "type": "uint256"
        },
        {
          "indexed": true,
          "internalType": "address",
          "name": "owner",
          "type": "address"
        },
        {
          "indexed": false,
          "internalType": "string",
          "name": "name",
          "type": "string"
        },
        {
          "indexed": false,
          "internalType": "enum CardNFT.CardType",
          "name": "cardType",
          "type": "uint8"
        },
        {
          "indexed": false,
          "internalType": "enum CardNFT.Rarity",
          "name": "rarity",
          "type": "uint8"
        },
        {
          "indexed": false,
          "internalType": "uint256",
          "name": "value",
          "type": "uint256"
        }
      ],
      "name": "CardMinted",
      "type": "event"
    },
    {
      "anonymous": false,
      "inputs": [
        {
          "indexed": true,
          "internalType": "uint256",
          "name": "tokenId",
          "type": "uint256"
        },
        {
          "indexed": true,
          "internalType": "address",
          "name": "from",
          "type": "address"
        },
        {
          "indexed": true,
          "internalType": "address",
          "name": "to",
          "type": "address"
        },
        {
          "indexed": false,
          "internalType": "uint256",
          "name": "timestamp",
          "type": "uint256"
        }
      ],
      "name": "CardTransferred",
      "type": "event"
    },
    {
      "anonymous": false,
      "inputs": [
        {
          "indexed": false,
          "internalType": "uint256",
          "name": "_tokenId",
          "type": "uint256"
        }
      ],
      "name": "MetadataUpdate",
      "type": "event"
    },
    {
      "anonymous": false,
      "inputs": [
        {
          "indexed": true,
          "internalType": "address",
          "name": "previousOwner",
          "type": "address"
        },
        {
          "indexed": true,
          "internalType": "address",
          "name": "newOwner",
          "type": "address"
        }
      ],
      "name": "OwnershipTransferred",
      "type": "event"
    },
    {
      "anonymous": false,
      "inputs": [
        {
          "indexed": true,
          "internalType": "address",
          "name": "from",
          "type": "address"
        },
        {
          "indexed": true,
          "internalType": "address",
          "name": "to",
          "type": "address"
        },
        {
          "indexed": true,
          "internalType": "uint256",
          "name": "tokenId",
          "type": "uint256"
        }
      ],
      "name": "Transfer",
      "type": "event"
    },
    {
      "inputs": [],
      "name": "ACQUISITION_LOCK",
      "outputs": [
        {
          "internalType": "uint256",
          "name": "",
          "type": "uint256"
        }
      ],
      "stateMutability": "view",
      "type": "function"
    },
    {
      "inputs": [],
      "name": "MAX_CARDS_PER_USER",
      "outputs": [
        {
          "internalType": "uint256",
          "name": "",
          "type": "uint256"
        }
      ],
      "stateMutability": "view",
      "type": "function"
    },
    {
      "inputs": [],
      "name": "TRANSACTION_COOLDOWN",
      "outputs": [
        {
          "internalType": "uint256",
          "name": "",
          "type": "uint256"
        }
      ],
      "stateMutability": "view",
      "type": "function"
    },
    {
      "inputs": [],
      "name": "VALUE_COMMUNE",
      "outputs": [
        {
          "internalType": "uint256",
          "name": "",
          "type": "uint256"
        }
      ],
      "stateMutability": "view",
      "type": "function"
    },
    {
      "inputs": [],
      "name": "VALUE_EPIQUE",
      "outputs": [
        {
          "internalType": "uint256",
          "name": "",
          "type": "uint256"
        }
      ],
      "stateMutability": "view",
      "type": "function"
    },
    {
      "inputs": [],
      "name": "VALUE_LEGENDAIRE",
      "outputs": [
        {
          "internalType": "uint256",
          "name": "",
          "type": "uint256"
        }
      ],
      "stateMutability": "view",
      "type": "function"
    },
    {
      "inputs": [],
      "name": "VALUE_RARE",
      "outputs": [
        {
          "internalType": "uint256",
          "name": "",
          "type": "uint256"
        }
      ],
      "stateMutability": "view",
      "type": "function"
    },
    {
      "inputs": [
        {
          "internalType": "address",
          "name": "to",
          "type": "address"
        },
        {
          "internalType": "uint256",
          "name": "tokenId",
          "type": "uint256"
        }
      ],
      "name": "approve",
      "outputs": [],
      "stateMutability": "nonpayable",
      "type": "function"
    },
    {
      "inputs": [
        {
          "internalType": "address",
          "name": "owner",
          "type": "address"
        }
      ],
      "name": "balanceOf",
      "outputs": [
        {
          "internalType": "uint256",
          "name": "",
          "type": "uint256"
        }
      ],
      "stateMutability": "view",
      "type": "function"
    },
    {
      "inputs": [
        {
          "internalType": "address",
          "name": "user",
          "type": "address"
        }
      ],
      "name": "canUserTransact",
      "outputs": [
        {
          "internalType": "bool",
          "name": "",
          "type": "bool"
        }
      ],
      "stateMutability": "view",
      "type": "function"
    },
    {
      "inputs": [
        {
          "internalType": "uint256",
          "name": "tokenId",
          "type": "uint256"
        }
      ],
      "name": "getAcquisitionTime",
      "outputs": [
        {
          "internalType": "uint256",
          "name": "",
          "type": "uint256"
        }
      ],
      "stateMutability": "view",
      "type": "function"
    },
    {
      "inputs": [
        {
          "internalType": "uint256",
          "name": "tokenId",
          "type": "uint256"
        }
      ],
      "name": "getApproved",
      "outputs": [
        {
          "internalType": "address",
          "name": "",
          "type": "address"
        }
      ],
      "stateMutability": "view",
      "type": "function"
    },
    {
      "inputs": [
        {
          "internalType": "uint256",
          "name": "tokenId",
          "type": "uint256"
        }
      ],
      "name": "getCard",
      "outputs": [
        {
          "internalType": "string",
          "name": "name",
          "type": "string"
        },
        {
          "internalType": "enum CardNFT.CardType",
          "name": "cardType",
          "type": "uint8"
        },
        {
          "internalType": "enum CardNFT.Rarity",
          "name": "rarity",
          "type": "uint8"
        },
        {
          "internalType": "uint256",
          "name": "value",
          "type": "uint256"
        },
        {
          "internalType": "uint256",
          "name": "power",
          "type": "uint256"
        },
        {
          "internalType": "uint256",
          "name": "defense",
          "type": "uint256"
        },
        {
          "internalType": "uint256",
          "name": "createdAt",
          "type": "uint256"
        },
        {
          "internalType": "uint256",
          "name": "lastTransferAt",
          "type": "uint256"
        },
        {
          "internalType": "uint256",
          "name": "edition",
          "type": "uint256"
        },
        {
          "internalType": "uint256",
          "name": "maxEdition",
          "type": "uint256"
        },
        {
          "internalType": "address",
          "name": "creator",
          "type": "address"
        }
      ],
      "stateMutability": "view",
      "type": "function"
    },
    {
      "inputs": [
        {
          "internalType": "uint256",
          "name": "tokenId",
          "type": "uint256"
        }
      ],
      "name": "getCardPreviousOwners",
      "outputs": [
        {
          "internalType": "address[]",
          "name": "",
          "type": "address[]"
        }
      ],
      "stateMutability": "view",
      "type": "function"
    },
    {
      "inputs": [
        {
          "internalType": "uint256",
          "name": "tokenId",
          "type": "uint256"
        }
      ],
      "name": "getCardValue",
      "outputs": [
        {
          "internalType": "uint256",
          "name": "",
          "type": "uint256"
        }
      ],
      "stateMutability": "view",
      "type": "function"
    },
    {
      "inputs": [
        {
          "internalType": "address",
          "name": "user",
          "type": "address"
        }
      ],
      "name": "getLastTransactionTime",
      "outputs": [
        {
          "internalType": "uint256",
          "name": "",
          "type": "uint256"
        }
      ],
      "stateMutability": "view",
      "type": "function"
    },
    {
      "inputs": [
        {
          "internalType": "address",
          "name": "user",
          "type": "address"
        }
      ],
      "name": "getRemainingCooldown",
      "outputs": [
        {
          "internalType": "uint256",
          "name": "",
          "type": "uint256"
        }
      ],
      "stateMutability": "view",
      "type": "function"
    },
    {
      "inputs": [
        {
          "internalType": "uint256",
          "name": "tokenId",
          "type": "uint256"
        }
      ],
      "name": "getRemainingLockTime",
      "outputs": [
        {
          "internalType": "uint256",
          "name": "",
          "type": "uint256"
        }
      ],
      "stateMutability": "view",
      "type": "function"
    },
    {
      "inputs": [
        {
          "internalType": "address",
          "name": "user",
          "type": "address"
        }
      ],
      "name": "getUserCardCount",
      "outputs": [
        {
          "internalType": "uint256",
          "name": "",
          "type": "uint256"
        }
      ],
      "stateMutability": "view",
      "type": "function"
    },
    {
      "inputs": [
        {
          "internalType": "address",
          "name": "owner",
          "type": "address"
        },
        {
          "internalType": "address",
          "name": "operator",
          "type": "address"
        }
      ],
      "name": "isApprovedForAll",
      "outputs": [
        {
          "internalType": "bool",
          "name": "",
          "type": "bool"
        }
      ],
      "stateMutability": "view",
      "type": "function"
    },
    {
      "inputs": [
        {
          "internalType": "uint256",
          "name": "tokenId",
          "type": "uint256"
        }
      ],
      "name": "isCardLocked",
      "outputs": [
        {
          "internalType": "bool",
          "name": "",
          "type": "bool"
        }
      ],
      "stateMutability": "view",
      "type": "function"
    },
    {
      "inputs": [
        {
          "internalType": "address",
          "name": "to",
          "type": "address"
        },
        {
          "internalType": "string",
          "name": "name",
          "type": "string"
        },
        {
          "internalType": "enum CardNFT.CardType",
          "name": "cardType",
          "type": "uint8"
        },
        {
          "internalType": "enum CardNFT.Rarity",
          "name": "rarity",
          "type": "uint8"
        },
        {
          "internalType": "uint256",
          "name": "power",
          "type": "uint256"
        },
        {
          "internalType": "uint256",
          "name": "defense",
          "type": "uint256"
        },
        {
          "internalType": "uint256",
          "name": "edition",
          "type": "uint256"
        },
        {
          "internalType": "uint256",
          "name": "maxEdition",
          "type": "uint256"
        },
        {
          "internalType": "string",
          "name": "ipfsURI",
          "type": "string"
        }
      ],
      "name": "mint",
      "outputs": [
        {
          "internalType": "uint256",
          "name": "",
          "type": "uint256"
        }
      ],
      "stateMutability": "nonpayable",
      "type": "function"
    },
    {
      "inputs": [],
      "name": "name",
      "outputs": [
        {
          "internalType": "string",
          "name": "",
          "type": "string"
        }
      ],
      "stateMutability": "view",
      "type": "function"
    },
    {
      "inputs": [],
      "name": "owner",
      "outputs": [
        {
          "internalType": "address",
          "name": "",
          "type": "address"
        }
      ],
      "stateMutability": "view",
      "type": "function"
    },
    {
      "inputs": [
        {
          "internalType": "uint256",
          "name": "tokenId",
          "type": "uint256"
        }
      ],
      "name": "ownerOf",
      "outputs": [
        {
          "internalType": "address",
          "name": "",
          "type": "address"
        }
      ],
      "stateMutability": "view",
      "type": "function"
    },
    {
      "inputs": [],
      "name": "renounceOwnership",
      "outputs": [],
      "stateMutability": "nonpayable",
      "type": "function"
    },
    {
      "inputs": [
        {
          "internalType": "address",
          "name": "from",
          "type": "address"
        },
        {
          "internalType": "address",
          "name": "to",
          "type": "address"
        },
        {
          "internalType": "uint256",
          "name": "tokenId",
          "type": "uint256"
        }
      ],
      "name": "safeTransferFrom",
      "outputs": [],
      "stateMutability": "nonpayable",
      "type": "function"
    },
    {
      "inputs": [
        {
          "internalType": "address",
          "name": "from",
          "type": "address"
        },
        {
          "internalType": "address",
          "name": "to",
          "type": "address"
        },
        {
          "internalType": "uint256",
          "name": "tokenId",
          "type": "uint256"
        },
        {
          "internalType": "bytes",
          "name": "data",
          "type": "bytes"
        }
      ],
      "name": "safeTransferFrom",
      "outputs": [],
      "stateMutability": "nonpayable",
      "type": "function"
    },
    {
      "inputs": [
        {
          "internalType": "address",
          "name": "operator",
          "type": "address"
        },
        {
          "internalType": "bool",
          "name": "approved",
          "type": "bool"
        }
      ],
      "name": "setApprovalForAll",
      "outputs": [],
      "stateMutability": "nonpayable",
      "type": "function"
    },
    {
      "inputs": [
        {
          "internalType": "bytes4",
          "name": "interfaceId",
          "type": "bytes4"
        }
      ],
      "name": "supportsInterface",
      "outputs": [
        {
          "internalType": "bool",
          "name": "",
          "type": "bool"
        }
      ],
      "stateMutability": "view",
      "type": "function"
    },
    {
      "inputs": [],
      "name": "symbol",
      "outputs": [
        {
          "internalType": "string",
          "name": "",
          "type": "string"
        }
      ],
      "stateMutability": "view",
      "type": "function"
    },
    {
      "inputs": [
        {
          "internalType": "uint256",
          "name": "tokenId",
          "type": "uint256"
        }
      ],
      "name": "tokenURI",
      "outputs": [
        {
          "internalType": "string",
          "name": "",
          "type": "string"
        }
      ],
      "stateMutability": "view",
      "type": "function"
    },
    {
      "inputs": [
        {
          "internalType": "address",
          "name": "from",
          "type": "address"
        },
        {
          "internalType": "address",
          "name": "to",
          "type": "address"
        },
        {
          "internalType": "uint256",
          "name": "tokenId",
          "type": "uint256"
        }
      ],
      "name": "transferCard",
      "outputs": [],
      "stateMutability": "nonpayable",
      "type": "function"
    },
    {
      "inputs": [
        {
          "internalType": "address",
          "name": "from",
          "type": "address"
        },
        {
          "internalType": "address",
          "name": "to",
          "type": "address"
        },
        {
          "internalType": "uint256",
          "name": "tokenId",
          "type": "uint256"
        }
      ],
      "name": "transferFrom",
      "outputs": [],
      "stateMutability": "nonpayable",
      "type": "function"
    },
    {
      "inputs": [
        {
          "internalType": "address",
          "name": "newOwner",
          "type": "address"
        }
      ],
      "name": "transferOwnership",
      "outputs": [],
      "stateMutability": "nonpayable",
      "type": "function"
    }
  ],
  "bytecode": "0x60806040523480156200001157600080fd5b50336040518060400160405280600e81526020016d21b0b93221b7b63632b1ba34b7b760911b8152506040518060400160405280600481526020016310d0549160e21b8152508160009081620000689190620001bc565b506001620000778282620001bc565b5050506001600160a01b038116620000a957604051631e4fbdf760e01b81526000600482015260240160405180910390fd5b620000b481620000c5565b506001600855600060095562000288565b600780546001600160a01b038381166001600160a01b0319831681179093556040519116919082907f8be0079c531659141344cd1fd0a4f28419497f9722a3daafe3b4186f6b6457e090600090a35050565b634e487b7160e01b600052604160045260246000fd5b600181811c908216806200014257607f821691505b6020821081036200016357634e487b7160e01b600052602260045260246000fd5b50919050565b601f821115620001b757600081815260208120601f850160051c81016020861015620001925750805b601f850160051c820191505b81811015620001b3578281556001016200019e565b5050505b505050565b81516001600160401b03811115620001d857620001d862000117565b620001f081620001e984546200012d565b8462000169565b602080601f8311600181146200022857600084156200020f5750858301515b600019600386901b1c1916600185901b178555620001b3565b600085815260208120601f198616915b82811015620002595788860151825594840194600190910190840162000238565b5085821015620002785787850151600019600388901b60f8161c191681555b5050505050600190811b01905550565b61239280620002986000396000f3fe608060405234801561001057600080fd5b50600436106102115760003560e01c8063715018a611610125578063b049a0f5116100ad578063e6f3e0041161007c578063e6f3e00414610470578063e7f983ff14610483578063e985e9c5146104a3578063f2fde38b146104b6578063f8fcf5f3146104c957600080fd5b8063b049a0f51461043a578063b88d4fde14610442578063c87b56dd14610455578063d78d52701461046857600080fd5b80639188d312116100f45780639188d312146103b957806395d89b41146103e3578063a053f972146103eb578063a22cb46514610414578063aa7c080b1461042757600080fd5b8063715018a6146103645780637473addd1461036c5780637f9f3161146103955780638da5cb5b146103a857600080fd5b806321bb2886116101a85780632e78f9a7116101775780632e78f9a71461030f57806342842e0e1461032257806363153980146103355780636352211e1461033e57806370a082311461035157600080fd5b806321bb2886146102e257806323b872dd146102ea5780632c28efaf146102fd5780632d7abc651461030657600080fd5b8063095ea7b3116101e4578063095ea7b3146102945780631348f224146102a95780631668ea1e146102bc57806321806bf9146102cf57600080fd5b806301ffc9a71461021657806306fdde031461023e578063078f0bf914610253578063081812fc14610269575b600080fd5b610229610224366004611c4a565b6104e9565b60405190151581526020015b60405180910390f35b6102466104fa565b6040516102359190611cb7565b61025b60c881565b604051908152602001610235565b61027c610277366004611cca565b61058c565b6040516001600160a01b039091168152602001610235565b6102a76102a2366004611cff565b6105b5565b005b61025b6102b7366004611de2565b6105c4565b6102296102ca366004611cca565b61093e565b61025b6102dd366004611cca565b610962565b61025b600481565b6102a76102f8366004611ea7565b6109aa565b61025b6103e881565b61025b61012c81565b61025b61031d366004611cca565b610a35565b6102a7610330366004611ea7565b610a87565b61025b61025881565b61027c61034c366004611cca565b610aa7565b61025b61035f366004611ee3565b610ab2565b6102a7610afa565b61025b61037a366004611ee3565b6001600160a01b03166000908152600b602052604090205490565b6102a76103a3366004611ea7565b610b0e565b6007546001600160a01b031661027c565b6103cc6103c7366004611cca565b610d85565b6040516102359b9a99989796959493929190611f32565b610246610eeb565b61025b6103f9366004611ee3565b6001600160a01b03166000908152600d602052604090205490565b6102a7610422366004611fb0565b610efa565b610229610435366004611ee3565b610f05565b61025b603281565b6102a7610450366004611fec565b610f34565b610246610463366004611cca565b610f4c565b61025b600a81565b61025b61047e366004611ee3565b610f57565b610496610491366004611cca565b610f98565b6040516102359190612068565b6102296104b13660046120b5565b611045565b6102a76104c4366004611ee3565b611073565b61025b6104d7366004611cca565b6000908152600c602052604090205490565b60006104f4826110b1565b92915050565b606060008054610509906120e8565b80601f0160208091040260200160405190810160405280929190818152602001828054610535906120e8565b80156105825780601f1061055757610100808354040283529160200191610582565b820191906000526020600020905b81548152906001019060200180831161056557829003601f168201915b5050505050905090565b6000610597826110d6565b506000828152600460205260409020546001600160a01b03166104f4565b6105c082823361110f565b5050565b60006105ce61111c565b6105d6611149565b88516000036105f85760405163726042c560e01b815260040160405180910390fd5b8515806106055750606486115b8061060e575084155b806106195750606485115b1561063757604051635819342d60e11b815260040160405180910390fd5b83158061064357508284115b156106615760405163720874cf60e01b815260040160405180910390fd5b6001600160a01b038a166000908152600d60205260409020546004116106c2576001600160a01b038a166000818152600d602052604090819020549051631e5398f960e21b8152600481019290925260248201526044015b60405180910390fd5b6009805490819060006106d483612138565b919050555060006106e489611173565b6040805160008082526101c082018352602082018f81529394509092909183018d600381111561071657610716611efe565b81526020018c600381111561072d5761072d611efe565b81526020018481526020018b81526020018a8152602001838152602001428152602001428152602001898152602001888152602001336001600160a01b0316815260200160011515815250905080600a600086815260200190815260200160002060008201518160000190816107a39190612197565b50602082015160018083018054909160ff19909116908360038111156107cb576107cb611efe565b0217905550604082015160018201805461ff0019166101008360038111156107f5576107f5611efe565b0217905550606082015160028201556080820151600382015560a0820151600482015560c08201518051610833916005840191602090910190611bba565b5060e08201516006820155610100820151600782015561012082015160088201556101408201516009820155610160820151600a9091018054610180909301511515600160a01b026001600160a81b03199093166001600160a01b0392831617929092179091558e166000908152600d602052604081208054916108b683612138565b90915550506000848152600c602052604090204290556108d68e85611201565b6108e0848761121b565b8d6001600160a01b0316847f5acfd74df9d1309a24e3293e24bdf7d947eb43679cf2fa7629860ecd217f00838f8f8f886040516109209493929190612257565b60405180910390a350506001600855509a9950505050505050505050565b6000818152600c602052604081205461095a9061025890612296565b421092915050565b6000818152600c602052604081205461097d61025882612296565b421061098c5750600092915050565b4261099961025883612296565b6109a391906122a9565b9392505050565b6001600160a01b0382166109d457604051633250574960e11b8152600060048201526024016106b9565b60006109e183833361126b565b9050836001600160a01b0316816001600160a01b031614610a2f576040516364283d7b60e01b81526001600160a01b03808616600483015260248201849052821660448201526064016106b9565b50505050565b6000818152600a6020819052604082200154600160a01b900460ff16610a71576040516369fcc7a360e01b8152600481018390526024016106b9565b506000908152600a602052604090206002015490565b610aa283838360405180602001604052806000815250610f34565b505050565b60006104f4826110d6565b60006001600160a01b038216610ade576040516322718ad960e21b8152600060048201526024016106b9565b506001600160a01b031660009081526003602052604090205490565b610b0261111c565b610b0c6000611364565b565b610b16611149565b6000818152600a602081905260409091200154600160a01b900460ff16610b53576040516369fcc7a360e01b8152600481018290526024016106b9565b6001600160a01b0382166000908152600d6020526040902054600411610baf576001600160a01b0382166000818152600d602052604090819020549051631e5398f960e21b8152600481019290925260248201526044016106b9565b6001600160a01b0383166000908152600b6020526040902054610bd461012c82612296565b421015610c1d578342610be961012c84612296565b610bf391906122a9565b604051633b74406960e21b81526001600160a01b03909216600483015260248201526044016106b9565b6000828152600c6020526040902054610c3861025882612296565b421015610c79578242610c4d61025884612296565b610c5791906122a9565b604051630be5a00d60e11b8152600481019290925260248201526044016106b9565b6000838152600a602090815260408083206005810180546001810182559085528385200180546001600160a01b0319166001600160a01b038b16908117909155426007909201829055808552600b8452828520829055878552600c8452828520919091558352600d9091528120805491610cf2836122bc565b90915550506001600160a01b0384166000908152600d60205260408120805491610d1b83612138565b9190505550610d2b8585856113b6565b836001600160a01b0316856001600160a01b0316847f752aac0d9c8a357561aacae9fc00e902fd6af750ef2212cd45fefcf0da57af8642604051610d7191815260200190565b60405180910390a45050610aa26001600855565b6060600080600080600080600080600080600a60008d8152602001908152602001600020600a0160149054906101000a900460ff16610dda576040516369fcc7a360e01b8152600481018d90526024016106b9565b60008c8152600a602081905260409091206001810154600282015460038301546004840154600685015460078601546008870154600988015498880154885498998a9960ff808b169a610100900416989796959493926001600160a01b0316908b90610e45906120e8565b80601f0160208091040260200160405190810160405280929190818152602001828054610e71906120e8565b8015610ebe5780601f10610e9357610100808354040283529160200191610ebe565b820191906000526020600020905b815481529060010190602001808311610ea157829003601f168201915b50505050509a509b509b509b509b509b509b509b509b509b509b509b505091939597999b90929496989a50565b606060018054610509906120e8565b6105c0338383611466565b6001600160a01b0381166000908152600b6020526040812054610f2b9061012c90612296565b42101592915050565b610f3f8484846109aa565b610a2f3385858585611505565b60606104f482611630565b6001600160a01b0381166000908152600b6020526040812054610f7c61012c82612296565b4210610f8b5750600092915050565b4261099961012c83612296565b6000818152600a602081905260409091200154606090600160a01b900460ff16610fd8576040516369fcc7a360e01b8152600481018390526024016106b9565b6000828152600a60209081526040918290206005018054835181840281018401909452808452909183018282801561103957602002820191906000526020600020905b81546001600160a01b0316815260019091019060200180831161101b575b50505050509050919050565b6001600160a01b03918216600090815260056020908152604080832093909416825291909152205460ff1690565b61107b61111c565b6001600160a01b0381166110a557604051631e4fbdf760e01b8152600060048201526024016106b9565b6110ae81611364565b50565b60006001600160e01b03198216632483248360e11b14806104f457506104f482611741565b6000818152600260205260408120546001600160a01b0316806104f457604051637e27328960e01b8152600481018490526024016106b9565b610aa28383836001611791565b6007546001600160a01b03163314610b0c5760405163118cdaa760e01b81523360048201526024016106b9565b60026008540361116c57604051633ee5aeb560e01b815260040160405180910390fd5b6002600855565b60008082600381111561118857611188611efe565b036111955750600a919050565b60018260038111156111a9576111a9611efe565b036111b657506032919050565b60028260038111156111ca576111ca611efe565b036111d7575060c8919050565b60038260038111156111eb576111eb611efe565b036111f957506103e8919050565b50600a919050565b6105c0828260405180602001604052806000815250611897565b60008281526006602052604090206112338282612197565b506040518281527ff8e1a15aba9398e019f0b49df1a4fde98ee17ae345cb5f6b5e2c27f5033e8ce79060200160405180910390a15050565b6000828152600260205260408120546001600160a01b0390811690831615611298576112988184866118af565b6001600160a01b038116156112d6576112b5600085600080611791565b6001600160a01b038116600090815260036020526040902080546000190190555b6001600160a01b03851615611305576001600160a01b0385166000908152600360205260409020805460010190555b60008481526002602052604080822080546001600160a01b0319166001600160a01b0389811691821790925591518793918516917fddf252ad1be2c89b69c2b068fc378daa952ba7f163c4a11628f55a4df523b3ef91a4949350505050565b600780546001600160a01b038381166001600160a01b0319831681179093556040519116919082907f8be0079c531659141344cd1fd0a4f28419497f9722a3daafe3b4186f6b6457e090600090a35050565b6001600160a01b0382166113e057604051633250574960e11b8152600060048201526024016106b9565b60006113ee8383600061126b565b90506001600160a01b03811661141a57604051637e27328960e01b8152600481018390526024016106b9565b836001600160a01b0316816001600160a01b031614610a2f576040516364283d7b60e01b81526001600160a01b03808616600483015260248201849052821660448201526064016106b9565b6001600160a01b03821661149857604051630b61174360e31b81526001600160a01b03831660048201526024016106b9565b6001600160a01b03838116600081815260056020908152604080832094871680845294825291829020805460ff191686151590811790915591519182527f17307eab39ab6107e8899845ad3d59bd9653f200f220920489ca2b5937696c31910160405180910390a3505050565b6001600160a01b0383163b1561162957604051630a85bd0160e11b81526001600160a01b0384169063150b7a02906115479088908890879087906004016122d3565b6020604051808303816000875af1925050508015611582575060408051601f3d908101601f1916820190925261157f91810190612310565b60015b6115eb573d8080156115b0576040519150601f19603f3d011682016040523d82523d6000602084013e6115b5565b606091505b5080516000036115e357604051633250574960e11b81526001600160a01b03851660048201526024016106b9565b805160208201fd5b6001600160e01b03198116630a85bd0160e11b1461162757604051633250574960e11b81526001600160a01b03851660048201526024016106b9565b505b5050505050565b606061163b826110d6565b5060008281526006602052604081208054611655906120e8565b80601f0160208091040260200160405190810160405280929190818152602001828054611681906120e8565b80156116ce5780601f106116a3576101008083540402835291602001916116ce565b820191906000526020600020905b8154815290600101906020018083116116b157829003601f168201915b5050505050905060006116ec60408051602081019091526000815290565b905080516000036116fe575092915050565b81511561173057808260405160200161171892919061232d565b60405160208183030381529060405292505050919050565b61173984611913565b949350505050565b60006001600160e01b031982166380ac58cd60e01b148061177257506001600160e01b03198216635b5e139f60e01b145b806104f457506301ffc9a760e01b6001600160e01b03198316146104f4565b80806117a557506001600160a01b03821615155b156118675760006117b5846110d6565b90506001600160a01b038316158015906117e15750826001600160a01b0316816001600160a01b031614155b80156117f457506117f28184611045565b155b1561181d5760405163a9fbf51f60e01b81526001600160a01b03841660048201526024016106b9565b81156118655783856001600160a01b0316826001600160a01b03167f8c5be1e5ebec7d5bd14f71427d1e84f3dd0314c0f7b2291e5b200ac8c7c3b92560405160405180910390a45b505b5050600090815260046020526040902080546001600160a01b0319166001600160a01b0392909216919091179055565b6118a18383611987565b610aa2336000858585611505565b6118ba8383836119ec565b610aa2576001600160a01b0383166118e857604051637e27328960e01b8152600481018290526024016106b9565b60405163177e802f60e01b81526001600160a01b0383166004820152602481018290526044016106b9565b606061191e826110d6565b50600061193660408051602081019091526000815290565b9050600081511161195657604051806020016040528060008152506109a3565b8061196084611a4f565b60405160200161197192919061232d565b6040516020818303038152906040529392505050565b6001600160a01b0382166119b157604051633250574960e11b8152600060048201526024016106b9565b60006119bf8383600061126b565b90506001600160a01b03811615610aa2576040516339e3563760e11b8152600060048201526024016106b9565b60006001600160a01b038316158015906117395750826001600160a01b0316846001600160a01b03161480611a265750611a268484611045565b806117395750506000908152600460205260409020546001600160a01b03908116911614919050565b60606000611a5c83611ae2565b600101905060008167ffffffffffffffff811115611a7c57611a7c611d29565b6040519080825280601f01601f191660200182016040528015611aa6576020820181803683370190505b5090508181016020015b600019016f181899199a1a9b1b9c1cb0b131b232b360811b600a86061a8153600a8504945084611ab057509392505050565b60008072184f03e93ff9f4daa797ed6e38ed64bf6a1f0160401b8310611b215772184f03e93ff9f4daa797ed6e38ed64bf6a1f0160401b830492506040015b6d04ee2d6d415b85acef81000000008310611b4d576d04ee2d6d415b85acef8100000000830492506020015b662386f26fc100008310611b6b57662386f26fc10000830492506010015b6305f5e1008310611b83576305f5e100830492506008015b6127108310611b9757612710830492506004015b60648310611ba9576064830492506002015b600a83106104f45760010192915050565b828054828255906000526020600020908101928215611c0f579160200282015b82811115611c0f57825182546001600160a01b0319166001600160a01b03909116178255602090920191600190910190611bda565b50611c1b929150611c1f565b5090565b5b80821115611c1b5760008155600101611c20565b6001600160e01b0319811681146110ae57600080fd5b600060208284031215611c5c57600080fd5b81356109a381611c34565b60005b83811015611c82578181015183820152602001611c6a565b50506000910152565b60008151808452611ca3816020860160208601611c67565b601f01601f19169290920160200192915050565b6020815260006109a36020830184611c8b565b600060208284031215611cdc57600080fd5b5035919050565b80356001600160a01b0381168114611cfa57600080fd5b919050565b60008060408385031215611d1257600080fd5b611d1b83611ce3565b946020939093013593505050565b634e487b7160e01b600052604160045260246000fd5b600067ffffffffffffffff80841115611d5a57611d5a611d29565b604051601f8501601f19908116603f01168101908282118183101715611d8257611d82611d29565b81604052809350858152868686011115611d9b57600080fd5b858560208301376000602087830101525050509392505050565b600082601f830112611dc657600080fd5b6109a383833560208501611d3f565b600481106110ae57600080fd5b60008060008060008060008060006101208a8c031215611e0157600080fd5b611e0a8a611ce3565b985060208a013567ffffffffffffffff80821115611e2757600080fd5b611e338d838e01611db5565b995060408c01359150611e4582611dd5565b90975060608b013590611e5782611dd5565b90965060808b0135955060a08b0135945060c08b0135935060e08b013592506101008b01359080821115611e8a57600080fd5b50611e978c828d01611db5565b9150509295985092959850929598565b600080600060608486031215611ebc57600080fd5b611ec584611ce3565b9250611ed360208501611ce3565b9150604084013590509250925092565b600060208284031215611ef557600080fd5b6109a382611ce3565b634e487b7160e01b600052602160045260246000fd5b600481106110ae57634e487b7160e01b600052602160045260246000fd5b6000610160808352611f468184018f611c8b565b915050611f528c611f14565b8b6020830152611f618b611f14565b604082019a909a526060810198909852608088019690965260a087019490945260c086019290925260e08501526101008401526101208301526001600160a01b03166101409091015292915050565b60008060408385031215611fc357600080fd5b611fcc83611ce3565b915060208301358015158114611fe157600080fd5b809150509250929050565b6000806000806080858703121561200257600080fd5b61200b85611ce3565b935061201960208601611ce3565b925060408501359150606085013567ffffffffffffffff81111561203c57600080fd5b8501601f8101871361204d57600080fd5b61205c87823560208401611d3f565b91505092959194509250565b6020808252825182820181905260009190848201906040850190845b818110156120a95783516001600160a01b031683529284019291840191600101612084565b50909695505050505050565b600080604083850312156120c857600080fd5b6120d183611ce3565b91506120df60208401611ce3565b90509250929050565b600181811c908216806120fc57607f821691505b60208210810361211c57634e487b7160e01b600052602260045260246000fd5b50919050565b634e487b7160e01b600052601160045260246000fd5b60006001820161214a5761214a612122565b5060010190565b601f821115610aa257600081815260208120601f850160051c810160208610156121785750805b601f850160051c820191505b8181101561162757828155600101612184565b815167ffffffffffffffff8111156121b1576121b1611d29565b6121c5816121bf84546120e8565b84612151565b602080601f8311600181146121fa57600084156121e25750858301515b600019600386901b1c1916600185901b178555611627565b600085815260208120601f198616915b828110156122295788860151825594840194600190910190840161220a565b50858210156122475787850151600019600388901b60f8161c191681555b5050505050600190811b01905550565b60808152600061226a6080830187611c8b565b905061227585611f14565b84602083015261228484611f14565b60408201939093526060015292915050565b808201808211156104f4576104f4612122565b818103818111156104f4576104f4612122565b6000816122cb576122cb612122565b506000190190565b6001600160a01b038581168252841660208201526040810183905260806060820181905260009061230690830184611c8b565b9695505050505050565b60006020828403121561232257600080fd5b81516109a381611c34565b6000835161233f818460208801611c67565b835190830190612353818360208801611c67565b0194935050505056fea264697066735822122045da90991eb66c13bbc289801220236b6e067b66e189e280bd8c7f66be9e92ed64736f6c63430008140033",
  "linkReferences": {},
  "deployedLinkReferences": {}
}